{
  "contractName": "AgriculturalAgreement",
  "abi": [
    {
      "anonymous": false,
      "inputs": [
        {
          "indexed": false,
          "internalType": "uint256",
          "name": "agreementId",
          "type": "uint256"
        }
      ],
      "name": "AgreementFulfilled",
      "type": "event"
    },
    {
      "inputs": [],
      "name": "agreementCount",
      "outputs": [
        {
          "internalType": "uint256",
          "name": "",
          "type": "uint256"
        }
      ],
      "stateMutability": "view",
      "type": "function",
      "constant": true
    },
    {
      "inputs": [
        {
          "internalType": "uint256",
          "name": "",
          "type": "uint256"
        }
      ],
      "name": "agreements",
      "outputs": [
        {
          "internalType": "string",
          "name": "farmer",
          "type": "string"
        },
        {
          "internalType": "string",
          "name": "buyer",
          "type": "string"
        },
        {
          "internalType": "string",
          "name": "farmerName",
          "type": "string"
        },
        {
          "internalType": "string",
          "name": "buyerName",
          "type": "string"
        },
        {
          "internalType": "string",
          "name": "cropType",
          "type": "string"
        },
        {
          "internalType": "uint256",
          "name": "quantity",
          "type": "uint256"
        },
        {
          "internalType": "uint256",
          "name": "pricePerUnit",
          "type": "uint256"
        },
        {
          "internalType": "enum AgriculturalAgreement.PaymentMethod",
          "name": "paymentMethod",
          "type": "uint8"
        },
        {
          "internalType": "uint256",
          "name": "deliveryDate",
          "type": "uint256"
        },
        {
          "internalType": "uint256",
          "name": "contractPeriod",
          "type": "uint256"
        },
        {
          "internalType": "string",
          "name": "termsAndConditions",
          "type": "string"
        }
      ],
      "stateMutability": "view",
      "type": "function",
      "constant": true
    },
    {
      "inputs": [
        {
          "internalType": "string",
          "name": "_farmer",
          "type": "string"
        },
        {
          "internalType": "string",
          "name": "_buyer",
          "type": "string"
        },
        {
          "internalType": "string",
          "name": "_farmerName",
          "type": "string"
        },
        {
          "internalType": "string",
          "name": "_buyerName",
          "type": "string"
        },
        {
          "internalType": "string",
          "name": "_cropType",
          "type": "string"
        },
        {
          "internalType": "uint256",
          "name": "_quantity",
          "type": "uint256"
        },
        {
          "internalType": "uint256",
          "name": "_pricePerUnit",
          "type": "uint256"
        },
        {
          "internalType": "enum AgriculturalAgreement.PaymentMethod",
          "name": "_paymentMethod",
          "type": "uint8"
        },
        {
          "internalType": "uint256",
          "name": "_deliveryDate",
          "type": "uint256"
        },
        {
          "internalType": "uint256",
          "name": "_contractPeriod",
          "type": "uint256"
        },
        {
          "internalType": "string",
          "name": "_termsAndConditions",
          "type": "string"
        }
      ],
      "name": "createAgreement",
      "outputs": [],
      "stateMutability": "nonpayable",
      "type": "function"
    },
    {
      "inputs": [
        {
          "internalType": "uint256",
          "name": "_agreementId",
          "type": "uint256"
        }
      ],
      "name": "fulfillAgreement",
      "outputs": [],
      "stateMutability": "payable",
      "type": "function",
      "payable": true
    },
    {
      "inputs": [
        {
          "internalType": "string",
          "name": "_address",
          "type": "string"
        }
      ],
      "name": "getAllAgreementsForAddress",
      "outputs": [
        {
          "components": [
            {
              "internalType": "string",
              "name": "farmer",
              "type": "string"
            },
            {
              "internalType": "string",
              "name": "buyer",
              "type": "string"
            },
            {
              "internalType": "string",
              "name": "farmerName",
              "type": "string"
            },
            {
              "internalType": "string",
              "name": "buyerName",
              "type": "string"
            },
            {
              "internalType": "string",
              "name": "cropType",
              "type": "string"
            },
            {
              "internalType": "uint256",
              "name": "quantity",
              "type": "uint256"
            },
            {
              "internalType": "uint256",
              "name": "pricePerUnit",
              "type": "uint256"
            },
            {
              "internalType": "enum AgriculturalAgreement.PaymentMethod",
              "name": "paymentMethod",
              "type": "uint8"
            },
            {
              "internalType": "uint256",
              "name": "deliveryDate",
              "type": "uint256"
            },
            {
              "internalType": "uint256",
              "name": "contractPeriod",
              "type": "uint256"
            },
            {
              "internalType": "string",
              "name": "termsAndConditions",
              "type": "string"
            }
          ],
          "internalType": "struct AgriculturalAgreement.Agreement[]",
          "name": "",
          "type": "tuple[]"
        }
      ],
      "stateMutability": "view",
      "type": "function",
      "constant": true
    }
  ],
  "bytecode": "0x608060405234801561001057600080fd5b50611c13806100206000396000f3fe60806040526004361061004a5760003560e01c80639848d6561461004f578063b59750181461006b578063bb61d170146100a8578063bb7bb278146100d1578063bd14de96146100fc575b600080fd5b61006960048036038101906100649190611001565b610143565b005b34801561007757600080fd5b50610092600480360381019061008d9190611174565b610341565b60405161009f919061149f565b60405180910390f35b3480156100b457600080fd5b506100cf60048036038101906100ca91906114e6565b610996565b005b3480156100dd57600080fd5b506100e6610b0b565b6040516100f39190611691565b60405180910390f35b34801561010857600080fd5b50610123600480360381019061011e9190611001565b610b11565b60405161013a9b9a99989796959493929190611705565b60405180910390f35b80600080600083815260200190815260200160002090508060000160405160200161016e91906118d9565b6040516020818303038152906040528051906020012033604051602001610195919061196a565b6040516020818303038152906040528051906020012014806102055750806001016040516020016101c691906118d9565b60405160208183030381529060405280519060200120336040516020016101ed919061196a565b60405160208183030381529060405280519060200120145b610244576040517f08c379a000000000000000000000000000000000000000000000000000000000815260040161023b906119d1565b60405180910390fd5b82600080600083815260200190815260200160002090508060000160405160200161026f91906118d9565b6040516020818303038152906040528051906020012033604051602001610296919061196a565b60405160208183030381529060405280519060200120146102ec576040517f08c379a00000000000000000000000000000000000000000000000000000000081526004016102e390611a63565b60405180910390fd5b600080600087815260200190815260200160002090507f52867b6621c82bd178a9944b8c1f1f29aba680811948fb9f8cfbd2fbd46108ee866040516103319190611691565b60405180910390a1505050505050565b6060600080600190505b600154811161043d57600080600083815260200190815260200160002090508460405160200161037b9190611ab4565b60405160208183030381529060405280519060200120816000016040516020016103a591906118d9565b6040516020818303038152906040528051906020012014806104155750846040516020016103d39190611ab4565b60405160208183030381529060405280519060200120816001016040516020016103fd91906118d9565b60405160208183030381529060405280519060200120145b1561042957828061042590611afa565b9350505b50808061043590611afa565b91505061034b565b5060008167ffffffffffffffff81111561045a57610459611049565b5b60405190808252806020026020018201604052801561049357816020015b610480610ea8565b8152602001906001900390816104785790505b509050600080600190505b600154811161098a5760008060008381526020019081526020016000209050866040516020016104ce9190611ab4565b60405160208183030381529060405280519060200120816000016040516020016104f891906118d9565b6040516020818303038152906040528051906020012014806105685750866040516020016105269190611ab4565b604051602081830303815290604052805190602001208160010160405160200161055091906118d9565b60405160208183030381529060405280519060200120145b1561097657806040518061016001604052908160008201805461058a90611809565b80601f01602080910402602001604051908101604052809291908181526020018280546105b690611809565b80156106035780601f106105d857610100808354040283529160200191610603565b820191906000526020600020905b8154815290600101906020018083116105e657829003601f168201915b5050505050815260200160018201805461061c90611809565b80601f016020809104026020016040519081016040528092919081815260200182805461064890611809565b80156106955780601f1061066a57610100808354040283529160200191610695565b820191906000526020600020905b81548152906001019060200180831161067857829003601f168201915b505050505081526020016002820180546106ae90611809565b80601f01602080910402602001604051908101604052809291908181526020018280546106da90611809565b80156107275780601f106106fc57610100808354040283529160200191610727565b820191906000526020600020905b81548152906001019060200180831161070a57829003601f168201915b5050505050815260200160038201805461074090611809565b80601f016020809104026020016040519081016040528092919081815260200182805461076c90611809565b80156107b95780601f1061078e576101008083540402835291602001916107b9565b820191906000526020600020905b81548152906001019060200180831161079c57829003601f168201915b505050505081526020016004820180546107d290611809565b80601f01602080910402602001604051908101604052809291908181526020018280546107fe90611809565b801561084b5780601f106108205761010080835404028352916020019161084b565b820191906000526020600020905b81548152906001019060200180831161082e57829003601f168201915b5050505050815260200160058201548152602001600682015481526020016007820160009054906101000a900460ff16600281111561088d5761088c611280565b5b600281111561089f5761089e611280565b5b81526020016008820154815260200160098201548152602001600a820180546108c790611809565b80601f01602080910402602001604051908101604052809291908181526020018280546108f390611809565b80156109405780601f1061091557610100808354040283529160200191610940565b820191906000526020600020905b81548152906001019060200180831161092357829003601f168201915b50505050508152505084848151811061095c5761095b611b42565b5b6020026020010181905250828061097290611afa565b9350505b50808061098290611afa565b91505061049e565b50819350505050919050565b60008b511180156109a8575060008a51115b6109e7576040517f08c379a00000000000000000000000000000000000000000000000000000000081526004016109de90611bbd565b60405180910390fd5b600160008154809291906109fa90611afa565b91905055506000806000600154815260200190815260200160002090508b816000019080519060200190610a2f929190610f14565b508a816001019080519060200190610a48929190610f14565b5089816002019080519060200190610a61929190610f14565b5088816003019080519060200190610a7a929190610f14565b5087816004019080519060200190610a93929190610f14565b50868160050181905550858160060181905550848160070160006101000a81548160ff02191690836002811115610acd57610acc611280565b5b02179055508381600801819055508281600901819055508181600a019080519060200190610afc929190610f14565b50505050505050505050505050565b60015481565b6000602052806000526040600020600091509050806000018054610b3490611809565b80601f0160208091040260200160405190810160405280929190818152602001828054610b6090611809565b8015610bad5780601f10610b8257610100808354040283529160200191610bad565b820191906000526020600020905b815481529060010190602001808311610b9057829003601f168201915b505050505090806001018054610bc290611809565b80601f0160208091040260200160405190810160405280929190818152602001828054610bee90611809565b8015610c3b5780601f10610c1057610100808354040283529160200191610c3b565b820191906000526020600020905b815481529060010190602001808311610c1e57829003601f168201915b505050505090806002018054610c5090611809565b80601f0160208091040260200160405190810160405280929190818152602001828054610c7c90611809565b8015610cc95780601f10610c9e57610100808354040283529160200191610cc9565b820191906000526020600020905b815481529060010190602001808311610cac57829003601f168201915b505050505090806003018054610cde90611809565b80601f0160208091040260200160405190810160405280929190818152602001828054610d0a90611809565b8015610d575780601f10610d2c57610100808354040283529160200191610d57565b820191906000526020600020905b815481529060010190602001808311610d3a57829003601f168201915b505050505090806004018054610d6c90611809565b80601f0160208091040260200160405190810160405280929190818152602001828054610d9890611809565b8015610de55780601f10610dba57610100808354040283529160200191610de5565b820191906000526020600020905b815481529060010190602001808311610dc857829003601f168201915b5050505050908060050154908060060154908060070160009054906101000a900460ff169080600801549080600901549080600a018054610e2590611809565b80601f0160208091040260200160405190810160405280929190818152602001828054610e5190611809565b8015610e9e5780601f10610e7357610100808354040283529160200191610e9e565b820191906000526020600020905b815481529060010190602001808311610e8157829003601f168201915b505050505090508b565b6040518061016001604052806060815260200160608152602001606081526020016060815260200160608152602001600081526020016000815260200160006002811115610ef957610ef8611280565b5b81526020016000815260200160008152602001606081525090565b828054610f2090611809565b90600052602060002090601f016020900481019282610f425760008555610f89565b82601f10610f5b57805160ff1916838001178555610f89565b82800160010185558215610f89579182015b82811115610f88578251825591602001919060010190610f6d565b5b509050610f969190610f9a565b5090565b5b80821115610fb3576000816000905550600101610f9b565b5090565b6000604051905090565b600080fd5b600080fd5b6000819050919050565b610fde81610fcb565b8114610fe957600080fd5b50565b600081359050610ffb81610fd5565b92915050565b60006020828403121561101757611016610fc1565b5b600061102584828501610fec565b91505092915050565b600080fd5b600080fd5b6000601f19601f8301169050919050565b7f4e487b7100000000000000000000000000000000000000000000000000000000600052604160045260246000fd5b61108182611038565b810181811067ffffffffffffffff821117156110a05761109f611049565b5b80604052505050565b60006110b3610fb7565b90506110bf8282611078565b919050565b600067ffffffffffffffff8211156110df576110de611049565b5b6110e882611038565b9050602081019050919050565b82818337600083830152505050565b6000611117611112846110c4565b6110a9565b90508281526020810184848401111561113357611132611033565b5b61113e8482856110f5565b509392505050565b600082601f83011261115b5761115a61102e565b5b813561116b848260208601611104565b91505092915050565b60006020828403121561118a57611189610fc1565b5b600082013567ffffffffffffffff8111156111a8576111a7610fc6565b5b6111b484828501611146565b91505092915050565b600081519050919050565b600082825260208201905092915050565b6000819050602082019050919050565b600081519050919050565b600082825260208201905092915050565b60005b83811015611223578082015181840152602081019050611208565b83811115611232576000848401525b50505050565b6000611243826111e9565b61124d81856111f4565b935061125d818560208601611205565b61126681611038565b840191505092915050565b61127a81610fcb565b82525050565b7f4e487b7100000000000000000000000000000000000000000000000000000000600052602160045260246000fd5b600381106112c0576112bf611280565b5b50565b60008190506112d1826112af565b919050565b60006112e1826112c3565b9050919050565b6112f1816112d6565b82525050565b60006101608301600083015184820360008601526113158282611238565b9150506020830151848203602086015261132f8282611238565b915050604083015184820360408601526113498282611238565b915050606083015184820360608601526113638282611238565b9150506080830151848203608086015261137d8282611238565b91505060a083015161139260a0860182611271565b5060c08301516113a560c0860182611271565b5060e08301516113b860e08601826112e8565b506101008301516113cd610100860182611271565b506101208301516113e2610120860182611271565b506101408301518482036101408601526113fc8282611238565b9150508091505092915050565b600061141583836112f7565b905092915050565b6000602082019050919050565b6000611435826111bd565b61143f81856111c8565b935083602082028501611451856111d9565b8060005b8581101561148d578484038952815161146e8582611409565b94506114798361141d565b925060208a01995050600181019050611455565b50829750879550505050505092915050565b600060208201905081810360008301526114b9818461142a565b905092915050565b600381106114ce57600080fd5b50565b6000813590506114e0816114c1565b92915050565b60008060008060008060008060008060006101608c8e03121561150c5761150b610fc1565b5b60008c013567ffffffffffffffff81111561152a57611529610fc6565b5b6115368e828f01611146565b9b505060208c013567ffffffffffffffff81111561155757611556610fc6565b5b6115638e828f01611146565b9a505060408c013567ffffffffffffffff81111561158457611583610fc6565b5b6115908e828f01611146565b99505060608c013567ffffffffffffffff8111156115b1576115b0610fc6565b5b6115bd8e828f01611146565b98505060808c013567ffffffffffffffff8111156115de576115dd610fc6565b5b6115ea8e828f01611146565b97505060a06115fb8e828f01610fec565b96505060c061160c8e828f01610fec565b95505060e061161d8e828f016114d1565b94505061010061162f8e828f01610fec565b9350506101206116418e828f01610fec565b9250506101408c013567ffffffffffffffff81111561166357611662610fc6565b5b61166f8e828f01611146565b9150509295989b509295989b9093969950565b61168b81610fcb565b82525050565b60006020820190506116a66000830184611682565b92915050565b600082825260208201905092915050565b60006116c8826111e9565b6116d281856116ac565b93506116e2818560208601611205565b6116eb81611038565b840191505092915050565b6116ff816112d6565b82525050565b6000610160820190508181036000830152611720818e6116bd565b90508181036020830152611734818d6116bd565b90508181036040830152611748818c6116bd565b9050818103606083015261175c818b6116bd565b90508181036080830152611770818a6116bd565b905061177f60a0830189611682565b61178c60c0830188611682565b61179960e08301876116f6565b6117a7610100830186611682565b6117b5610120830185611682565b8181036101408301526117c881846116bd565b90509c9b505050505050505050505050565b7f4e487b7100000000000000000000000000000000000000000000000000000000600052602260045260246000fd5b6000600282049050600182168061182157607f821691505b602082108103611834576118336117da565b5b50919050565b600081905092915050565b60008190508160005260206000209050919050565b6000815461186781611809565b611871818661183a565b9450600182166000811461188c576001811461189d576118d0565b60ff198316865281860193506118d0565b6118a685611845565b60005b838110156118c8578154818901526001820191506020810190506118a9565b838801955050505b50505092915050565b60006118e5828461185a565b915081905092915050565b600073ffffffffffffffffffffffffffffffffffffffff82169050919050565b600061191b826118f0565b9050919050565b60008160601b9050919050565b600061193a82611922565b9050919050565b600061194c8261192f565b9050919050565b61196461195f82611910565b611941565b82525050565b60006119768284611953565b60148201915081905092915050565b7f556e617574686f72697a65640000000000000000000000000000000000000000600082015250565b60006119bb600c836116ac565b91506119c682611985565b602082019050919050565b600060208201905081810360008301526119ea816119ae565b9050919050565b7f4f6e6c7920746865206661726d65722063616e2063616c6c207468697320667560008201527f6e6374696f6e0000000000000000000000000000000000000000000000000000602082015250565b6000611a4d6026836116ac565b9150611a58826119f1565b604082019050919050565b60006020820190508181036000830152611a7c81611a40565b9050919050565b6000611a8e826111e9565b611a98818561183a565b9350611aa8818560208601611205565b80840191505092915050565b6000611ac08284611a83565b915081905092915050565b7f4e487b7100000000000000000000000000000000000000000000000000000000600052601160045260246000fd5b6000611b0582610fcb565b91507fffffffffffffffffffffffffffffffffffffffffffffffffffffffffffffffff8203611b3757611b36611acb565b5b600182019050919050565b7f4e487b7100000000000000000000000000000000000000000000000000000000600052603260045260246000fd5b7f496e76616c696420616464726573736573000000000000000000000000000000600082015250565b6000611ba76011836116ac565b9150611bb282611b71565b602082019050919050565b60006020820190508181036000830152611bd681611b9a565b905091905056fea2646970667358221220a695cd0347795e84b1bd455f5f830890f758501ea5edab535343f5f2f98af35964736f6c634300080d0033",
  "immutableReferences": {},
  "source": "// SPDX-License-Identifier: MIT\npragma solidity >=0.5.0 <0.9.0;\n\ncontract AgriculturalAgreement {\n\n    enum PaymentMethod { Ether, Stablecoin, Other }\n    enum AgreementStatus { Pending, Accepted, Rejected }\n\n    struct Agreement {\n        string farmer; // Change type from address to string\n        string buyer; // Change type from address to string\n        string farmerName;\n        string buyerName;\n        string cropType;\n        uint quantity;\n        uint pricePerUnit;\n        PaymentMethod paymentMethod;\n        uint deliveryDate;\n        uint contractPeriod;\n        string termsAndConditions;\n    }\n\n    mapping(uint => Agreement) public agreements;\n    uint public agreementCount;\n\n    event AgreementFulfilled(uint agreementId);\n\n    modifier onlyParties(uint _agreementId) {\n        Agreement storage agreement = agreements[_agreementId];\n        require(keccak256(abi.encodePacked(msg.sender)) == keccak256(abi.encodePacked(agreement.farmer)) || keccak256(abi.encodePacked(msg.sender)) == keccak256(abi.encodePacked(agreement.buyer)), \"Unauthorized\");\n        _;\n    }\n\n    modifier onlyFarmer(uint _agreementId) {\n        Agreement storage agreement = agreements[_agreementId];\n        require(keccak256(abi.encodePacked(msg.sender)) == keccak256(abi.encodePacked(agreement.farmer)), \"Only the farmer can call this function\");\n        _;\n    }\n\n    modifier onlyBuyer(uint _agreementId) {\n        Agreement storage agreement = agreements[_agreementId];\n        require(keccak256(abi.encodePacked(msg.sender)) == keccak256(abi.encodePacked(agreement.buyer)), \"Only the buyer can call this function\");\n        _;\n    }\n\n\n\n    function createAgreement(\n        string memory _farmer,\n        string memory _buyer,\n        string memory _farmerName,\n        string memory _buyerName,\n        string memory _cropType,\n        uint _quantity,\n        uint _pricePerUnit,\n        PaymentMethod _paymentMethod,\n        uint _deliveryDate,\n        uint _contractPeriod,\n        string memory _termsAndConditions\n    ) external {\n        require(bytes(_farmer).length > 0 && bytes(_buyer).length > 0, \"Invalid addresses\");\n\n        agreementCount++;\n\n        Agreement storage newAgreement = agreements[agreementCount];\n        newAgreement.farmer = _farmer;\n        newAgreement.buyer = _buyer;\n        newAgreement.farmerName = _farmerName;\n        newAgreement.buyerName = _buyerName;\n        newAgreement.cropType = _cropType;\n        newAgreement.quantity = _quantity;\n        newAgreement.pricePerUnit = _pricePerUnit;\n        newAgreement.paymentMethod = _paymentMethod;\n        newAgreement.deliveryDate = _deliveryDate;\n        newAgreement.contractPeriod = _contractPeriod;\n        newAgreement.termsAndConditions = _termsAndConditions;\n    }\n\n    function fulfillAgreement(uint _agreementId) external payable onlyParties(_agreementId) onlyFarmer(_agreementId)  {\n        Agreement storage agreement = agreements[_agreementId];\n\n        emit AgreementFulfilled(_agreementId);\n    }\n\n    function getAllAgreementsForAddress(string memory _address) external view returns (Agreement[] memory) {\n        uint count = 0;\n        for (uint i = 1; i <= agreementCount; i++) {\n            Agreement storage agreement = agreements[i];\n            if (\n                keccak256(abi.encodePacked(agreement.farmer)) == keccak256(abi.encodePacked(_address)) ||\n                keccak256(abi.encodePacked(agreement.buyer)) == keccak256(abi.encodePacked(_address))\n            ) {\n                count++;\n            }\n        }\n\n        \n        Agreement[] memory result = new Agreement[](count);\n        uint index = 0;\n\n        for (uint i = 1; i <= agreementCount; i++) {\n            Agreement storage agreement = agreements[i];\n            if (\n                keccak256(abi.encodePacked(agreement.farmer)) == keccak256(abi.encodePacked(_address)) ||\n                keccak256(abi.encodePacked(agreement.buyer)) == keccak256(abi.encodePacked(_address))\n            ) {\n                result[index] = agreement;\n                index++;\n            }\n        }\n\n        return result;\n    }\n\n\n    \n}\n",
  "sourcePath": "/Users/prithvirajawatade/Documents/GitHub/agricultural-agreements/web3/contracts/Agreement.sol",
  "compiler": {
    "name": "solc",
    "version": "0.8.13+commit.abaa5c0e.Emscripten.clang"
  },
  "schemaVersion": "3.4.16",
  "updatedAt": "2023-11-25T13:39:33.871Z",
  "networkType": "ethereum",
  "devdoc": {
    "kind": "dev",
    "methods": {},
    "version": 1
  },
  "userdoc": {
    "kind": "user",
    "methods": {},
    "version": 1
  }
}