{
  "contractName": "AgriculturalAgreement",
  "abi": [
    {
      "anonymous": false,
      "inputs": [
        {
          "indexed": false,
          "internalType": "uint256",
          "name": "agreementId",
          "type": "uint256"
        }
      ],
      "name": "AgreementFulfilled",
      "type": "event"
    },
    {
      "inputs": [],
      "name": "agreementCount",
      "outputs": [
        {
          "internalType": "uint256",
          "name": "",
          "type": "uint256"
        }
      ],
      "stateMutability": "view",
      "type": "function",
      "constant": true
    },
    {
      "inputs": [
        {
          "internalType": "uint256",
          "name": "",
          "type": "uint256"
        }
      ],
      "name": "agreements",
      "outputs": [
        {
          "internalType": "address",
          "name": "farmer",
          "type": "address"
        },
        {
          "internalType": "address",
          "name": "buyer",
          "type": "address"
        },
        {
          "internalType": "string",
          "name": "farmerName",
          "type": "string"
        },
        {
          "internalType": "string",
          "name": "buyerName",
          "type": "string"
        },
        {
          "internalType": "string",
          "name": "cropType",
          "type": "string"
        },
        {
          "internalType": "uint256",
          "name": "quantity",
          "type": "uint256"
        },
        {
          "internalType": "uint256",
          "name": "pricePerUnit",
          "type": "uint256"
        },
        {
          "internalType": "enum AgriculturalAgreement.PaymentMethod",
          "name": "paymentMethod",
          "type": "uint8"
        },
        {
          "internalType": "bool",
          "name": "isAgreementFulfilled",
          "type": "bool"
        },
        {
          "internalType": "uint256",
          "name": "deliveryDate",
          "type": "uint256"
        },
        {
          "internalType": "uint256",
          "name": "contractPeriod",
          "type": "uint256"
        },
        {
          "internalType": "string",
          "name": "termsAndConditions",
          "type": "string"
        }
      ],
      "stateMutability": "view",
      "type": "function",
      "constant": true
    },
    {
      "inputs": [
        {
          "internalType": "address",
          "name": "_farmer",
          "type": "address"
        },
        {
          "internalType": "address",
          "name": "_buyer",
          "type": "address"
        },
        {
          "internalType": "string",
          "name": "_farmerName",
          "type": "string"
        },
        {
          "internalType": "string",
          "name": "_buyerName",
          "type": "string"
        },
        {
          "internalType": "string",
          "name": "_cropType",
          "type": "string"
        },
        {
          "internalType": "uint256",
          "name": "_quantity",
          "type": "uint256"
        },
        {
          "internalType": "uint256",
          "name": "_pricePerUnit",
          "type": "uint256"
        },
        {
          "internalType": "enum AgriculturalAgreement.PaymentMethod",
          "name": "_paymentMethod",
          "type": "uint8"
        },
        {
          "internalType": "uint256",
          "name": "_deliveryDate",
          "type": "uint256"
        },
        {
          "internalType": "uint256",
          "name": "_contractPeriod",
          "type": "uint256"
        },
        {
          "internalType": "string",
          "name": "_termsAndConditions",
          "type": "string"
        }
      ],
      "name": "createAgreement",
      "outputs": [],
      "stateMutability": "nonpayable",
      "type": "function"
    },
    {
      "inputs": [
        {
          "internalType": "uint256",
          "name": "_agreementId",
          "type": "uint256"
        }
      ],
      "name": "fulfillAgreement",
      "outputs": [],
      "stateMutability": "payable",
      "type": "function",
      "payable": true
    }
  ],
  "bytecode": "0x608060405234801561001057600080fd5b506111f6806100206000396000f3fe60806040526004361061003f5760003560e01c80639848d65614610044578063bb7bb27814610060578063bd14de961461008b578063c47b742a146100d3575b600080fd5b61005e60048036038101906100599190610990565b6100fc565b005b34801561006c57600080fd5b50610075610385565b60405161008291906109cc565b60405180910390f35b34801561009757600080fd5b506100b260048036038101906100ad9190610990565b61038b565b6040516100ca9c9b9a99989796959493929190610b53565b60405180910390f35b3480156100df57600080fd5b506100fa60048036038101906100f59190610daf565b610665565b005b80600080600083815260200190815260200160002090508060000160009054906101000a900473ffffffffffffffffffffffffffffffffffffffff1673ffffffffffffffffffffffffffffffffffffffff163373ffffffffffffffffffffffffffffffffffffffff1614806101c057508060010160009054906101000a900473ffffffffffffffffffffffffffffffffffffffff1673ffffffffffffffffffffffffffffffffffffffff163373ffffffffffffffffffffffffffffffffffffffff16145b6101ff576040517f08c379a00000000000000000000000000000000000000000000000000000000081526004016101f690610f5f565b60405180910390fd5b82600080600083815260200190815260200160002090508060000160009054906101000a900473ffffffffffffffffffffffffffffffffffffffff1673ffffffffffffffffffffffffffffffffffffffff163373ffffffffffffffffffffffffffffffffffffffff16146102a8576040517f08c379a000000000000000000000000000000000000000000000000000000000815260040161029f90610ff1565b60405180910390fd5b84600080600083815260200190815260200160002090508060070160019054906101000a900460ff1615610311576040517f08c379a00000000000000000000000000000000000000000000000000000000081526004016103089061105d565b60405180910390fd5b6000806000898152602001908152602001600020905060018160070160016101000a81548160ff0219169083151502179055507f52867b6621c82bd178a9944b8c1f1f29aba680811948fb9f8cfbd2fbd46108ee8860405161037391906109cc565b60405180910390a15050505050505050565b60015481565b60006020528060005260406000206000915090508060000160009054906101000a900473ffffffffffffffffffffffffffffffffffffffff16908060010160009054906101000a900473ffffffffffffffffffffffffffffffffffffffff16908060020180546103fa906110ac565b80601f0160208091040260200160405190810160405280929190818152602001828054610426906110ac565b80156104735780601f1061044857610100808354040283529160200191610473565b820191906000526020600020905b81548152906001019060200180831161045657829003601f168201915b505050505090806003018054610488906110ac565b80601f01602080910402602001604051908101604052809291908181526020018280546104b4906110ac565b80156105015780601f106104d657610100808354040283529160200191610501565b820191906000526020600020905b8154815290600101906020018083116104e457829003601f168201915b505050505090806004018054610516906110ac565b80601f0160208091040260200160405190810160405280929190818152602001828054610542906110ac565b801561058f5780601f106105645761010080835404028352916020019161058f565b820191906000526020600020905b81548152906001019060200180831161057257829003601f168201915b5050505050908060050154908060060154908060070160009054906101000a900460ff16908060070160019054906101000a900460ff169080600801549080600901549080600a0180546105e2906110ac565b80601f016020809104026020016040519081016040528092919081815260200182805461060e906110ac565b801561065b5780601f106106305761010080835404028352916020019161065b565b820191906000526020600020905b81548152906001019060200180831161063e57829003601f168201915b505050505090508c565b600073ffffffffffffffffffffffffffffffffffffffff168b73ffffffffffffffffffffffffffffffffffffffff16141580156106cf5750600073ffffffffffffffffffffffffffffffffffffffff168a73ffffffffffffffffffffffffffffffffffffffff1614155b61070e576040517f08c379a000000000000000000000000000000000000000000000000000000000815260040161070590611129565b60405180910390fd5b6001600081548092919061072190611178565b91905055506000806000600154815260200190815260200160002090508b8160000160006101000a81548173ffffffffffffffffffffffffffffffffffffffff021916908373ffffffffffffffffffffffffffffffffffffffff1602179055508a8160010160006101000a81548173ffffffffffffffffffffffffffffffffffffffff021916908373ffffffffffffffffffffffffffffffffffffffff160217905550898160020190805190602001906107dc9291906108a3565b50888160030190805190602001906107f59291906108a3565b508781600401908051906020019061080e9291906108a3565b50868160050181905550858160060181905550848160070160006101000a81548160ff0219169083600281111561084857610847610ac1565b5b021790555060008160070160016101000a81548160ff0219169083151502179055508381600801819055508281600901819055508181600a0190805190602001906108949291906108a3565b50505050505050505050505050565b8280546108af906110ac565b90600052602060002090601f0160209004810192826108d15760008555610918565b82601f106108ea57805160ff1916838001178555610918565b82800160010185558215610918579182015b828111156109175782518255916020019190600101906108fc565b5b5090506109259190610929565b5090565b5b8082111561094257600081600090555060010161092a565b5090565b6000604051905090565b600080fd5b600080fd5b6000819050919050565b61096d8161095a565b811461097857600080fd5b50565b60008135905061098a81610964565b92915050565b6000602082840312156109a6576109a5610950565b5b60006109b48482850161097b565b91505092915050565b6109c68161095a565b82525050565b60006020820190506109e160008301846109bd565b92915050565b600073ffffffffffffffffffffffffffffffffffffffff82169050919050565b6000610a12826109e7565b9050919050565b610a2281610a07565b82525050565b600081519050919050565b600082825260208201905092915050565b60005b83811015610a62578082015181840152602081019050610a47565b83811115610a71576000848401525b50505050565b6000601f19601f8301169050919050565b6000610a9382610a28565b610a9d8185610a33565b9350610aad818560208601610a44565b610ab681610a77565b840191505092915050565b7f4e487b7100000000000000000000000000000000000000000000000000000000600052602160045260246000fd5b60038110610b0157610b00610ac1565b5b50565b6000819050610b1282610af0565b919050565b6000610b2282610b04565b9050919050565b610b3281610b17565b82525050565b60008115159050919050565b610b4d81610b38565b82525050565b600061018082019050610b69600083018f610a19565b610b76602083018e610a19565b8181036040830152610b88818d610a88565b90508181036060830152610b9c818c610a88565b90508181036080830152610bb0818b610a88565b9050610bbf60a083018a6109bd565b610bcc60c08301896109bd565b610bd960e0830188610b29565b610be7610100830187610b44565b610bf56101208301866109bd565b610c036101408301856109bd565b818103610160830152610c168184610a88565b90509d9c50505050505050505050505050565b610c3281610a07565b8114610c3d57600080fd5b50565b600081359050610c4f81610c29565b92915050565b600080fd5b600080fd5b7f4e487b7100000000000000000000000000000000000000000000000000000000600052604160045260246000fd5b610c9782610a77565b810181811067ffffffffffffffff82111715610cb657610cb5610c5f565b5b80604052505050565b6000610cc9610946565b9050610cd58282610c8e565b919050565b600067ffffffffffffffff821115610cf557610cf4610c5f565b5b610cfe82610a77565b9050602081019050919050565b82818337600083830152505050565b6000610d2d610d2884610cda565b610cbf565b905082815260208101848484011115610d4957610d48610c5a565b5b610d54848285610d0b565b509392505050565b600082601f830112610d7157610d70610c55565b5b8135610d81848260208601610d1a565b91505092915050565b60038110610d9757600080fd5b50565b600081359050610da981610d8a565b92915050565b60008060008060008060008060008060006101608c8e031215610dd557610dd4610950565b5b6000610de38e828f01610c40565b9b50506020610df48e828f01610c40565b9a505060408c013567ffffffffffffffff811115610e1557610e14610955565b5b610e218e828f01610d5c565b99505060608c013567ffffffffffffffff811115610e4257610e41610955565b5b610e4e8e828f01610d5c565b98505060808c013567ffffffffffffffff811115610e6f57610e6e610955565b5b610e7b8e828f01610d5c565b97505060a0610e8c8e828f0161097b565b96505060c0610e9d8e828f0161097b565b95505060e0610eae8e828f01610d9a565b945050610100610ec08e828f0161097b565b935050610120610ed28e828f0161097b565b9250506101408c013567ffffffffffffffff811115610ef457610ef3610955565b5b610f008e828f01610d5c565b9150509295989b509295989b9093969950565b7f556e617574686f72697a65640000000000000000000000000000000000000000600082015250565b6000610f49600c83610a33565b9150610f5482610f13565b602082019050919050565b60006020820190508181036000830152610f7881610f3c565b9050919050565b7f4f6e6c7920746865206661726d65722063616e2063616c6c207468697320667560008201527f6e6374696f6e0000000000000000000000000000000000000000000000000000602082015250565b6000610fdb602683610a33565b9150610fe682610f7f565b604082019050919050565b6000602082019050818103600083015261100a81610fce565b9050919050565b7f41677265656d656e7420616c72656164792066756c66696c6c65640000000000600082015250565b6000611047601b83610a33565b915061105282611011565b602082019050919050565b600060208201905081810360008301526110768161103a565b9050919050565b7f4e487b7100000000000000000000000000000000000000000000000000000000600052602260045260246000fd5b600060028204905060018216806110c457607f821691505b6020821081036110d7576110d661107d565b5b50919050565b7f496e76616c696420616464726573736573000000000000000000000000000000600082015250565b6000611113601183610a33565b915061111e826110dd565b602082019050919050565b6000602082019050818103600083015261114281611106565b9050919050565b7f4e487b7100000000000000000000000000000000000000000000000000000000600052601160045260246000fd5b60006111838261095a565b91507fffffffffffffffffffffffffffffffffffffffffffffffffffffffffffffffff82036111b5576111b4611149565b5b60018201905091905056fea2646970667358221220086c4b9330bcb0bf918144efa8393b82617f47dfaab9f0bce1c7277496588db864736f6c634300080d0033",
  "immutableReferences": {},
  "source": "// SPDX-License-Identifier: MIT\npragma solidity >=0.5.0 <0.9.0;\n\ncontract AgriculturalAgreement {\n\n    enum PaymentMethod { Ether, Stablecoin, Other }\n\n    struct Agreement {\n        address farmer;\n        address buyer;\n        string farmerName;\n        string buyerName;\n        string cropType;\n        uint quantity;\n        uint pricePerUnit;\n        PaymentMethod paymentMethod;\n        bool isAgreementFulfilled;\n        uint deliveryDate;\n        uint contractPeriod;\n        string termsAndConditions;\n    }\n\n    mapping(uint => Agreement) public agreements;\n    uint public agreementCount;\n\n    event AgreementFulfilled(uint agreementId);\n\n    modifier onlyParties(uint _agreementId) {\n        Agreement storage agreement = agreements[_agreementId];\n        require(msg.sender == agreement.farmer || msg.sender == agreement.buyer, \"Unauthorized\");\n        _;\n    }\n\n    modifier onlyFarmer(uint _agreementId) {\n        Agreement storage agreement = agreements[_agreementId];\n        require(msg.sender == agreement.farmer, \"Only the farmer can call this function\");\n        _;\n    }\n\n    modifier onlyBuyer(uint _agreementId) {\n        Agreement storage agreement = agreements[_agreementId];\n        require(msg.sender == agreement.buyer, \"Only the buyer can call this function\");\n        _;\n    }\n\n    modifier agreementNotFulfilled(uint _agreementId) {\n        Agreement storage agreement = agreements[_agreementId];\n        require(!agreement.isAgreementFulfilled, \"Agreement already fulfilled\");\n        _;\n    }\n\n    function createAgreement(\n        address _farmer,\n        address _buyer,\n        string memory _farmerName,\n        string memory _buyerName,\n        string memory _cropType,\n        uint _quantity,\n        uint _pricePerUnit,\n        PaymentMethod _paymentMethod,\n        uint _deliveryDate,\n        uint _contractPeriod,\n        string memory _termsAndConditions\n    ) external {\n        require(_farmer != address(0) && _buyer != address(0), \"Invalid addresses\");\n\n        agreementCount++;\n\n        Agreement storage newAgreement = agreements[agreementCount];\n        newAgreement.farmer = _farmer;\n        newAgreement.buyer = _buyer;\n        newAgreement.farmerName = _farmerName;\n        newAgreement.buyerName = _buyerName;\n        newAgreement.cropType = _cropType;\n        newAgreement.quantity = _quantity;\n        newAgreement.pricePerUnit = _pricePerUnit;\n        newAgreement.paymentMethod = _paymentMethod;\n        newAgreement.isAgreementFulfilled = false;\n        newAgreement.deliveryDate = _deliveryDate;\n        newAgreement.contractPeriod = _contractPeriod;\n        newAgreement.termsAndConditions = _termsAndConditions;\n    }\n\n    function fulfillAgreement(uint _agreementId) external payable onlyParties(_agreementId) onlyFarmer(_agreementId) agreementNotFulfilled(_agreementId) {\n        Agreement storage agreement = agreements[_agreementId];\n\n        agreement.isAgreementFulfilled = true;\n\n        emit AgreementFulfilled(_agreementId);\n    }\n}\n",
  "sourcePath": "/Users/prithvirajawatade/Documents/GitHub/agricultural-agreements/web3/contracts/Agreement.sol",
  "compiler": {
    "name": "solc",
    "version": "0.8.13+commit.abaa5c0e.Emscripten.clang"
  },
  "schemaVersion": "3.4.16",
  "updatedAt": "2023-11-24T20:56:17.865Z",
  "networkType": "ethereum",
  "devdoc": {
    "kind": "dev",
    "methods": {},
    "version": 1
  },
  "userdoc": {
    "kind": "user",
    "methods": {},
    "version": 1
  }
}