{
  "contractName": "User",
  "abi": [
    {
      "inputs": [],
      "stateMutability": "nonpayable",
      "type": "constructor"
    },
    {
      "inputs": [
        {
          "internalType": "string",
          "name": "",
          "type": "string"
        }
      ],
      "name": "users",
      "outputs": [
        {
          "internalType": "string",
          "name": "walletAddress",
          "type": "string"
        },
        {
          "internalType": "string",
          "name": "name",
          "type": "string"
        },
        {
          "internalType": "string",
          "name": "email",
          "type": "string"
        },
        {
          "internalType": "uint256",
          "name": "userType",
          "type": "uint256"
        },
        {
          "internalType": "string",
          "name": "password",
          "type": "string"
        }
      ],
      "stateMutability": "view",
      "type": "function",
      "constant": true
    },
    {
      "inputs": [
        {
          "internalType": "string",
          "name": "walletAddress",
          "type": "string"
        },
        {
          "internalType": "string",
          "name": "name",
          "type": "string"
        },
        {
          "internalType": "string",
          "name": "email",
          "type": "string"
        },
        {
          "internalType": "uint256",
          "name": "userType",
          "type": "uint256"
        },
        {
          "internalType": "string",
          "name": "password",
          "type": "string"
        }
      ],
      "name": "addUser",
      "outputs": [],
      "stateMutability": "nonpayable",
      "type": "function"
    },
    {
      "inputs": [
        {
          "internalType": "string",
          "name": "walletAddress",
          "type": "string"
        },
        {
          "internalType": "string",
          "name": "newPassword",
          "type": "string"
        }
      ],
      "name": "updatePassword",
      "outputs": [],
      "stateMutability": "nonpayable",
      "type": "function"
    },
    {
      "inputs": [
        {
          "internalType": "string",
          "name": "walletAddress",
          "type": "string"
        },
        {
          "internalType": "string",
          "name": "password",
          "type": "string"
        }
      ],
      "name": "loginUser",
      "outputs": [
        {
          "internalType": "bool",
          "name": "",
          "type": "bool"
        },
        {
          "components": [
            {
              "internalType": "string",
              "name": "walletAddress",
              "type": "string"
            },
            {
              "internalType": "string",
              "name": "name",
              "type": "string"
            },
            {
              "internalType": "string",
              "name": "email",
              "type": "string"
            },
            {
              "internalType": "uint256",
              "name": "userType",
              "type": "uint256"
            },
            {
              "internalType": "string",
              "name": "password",
              "type": "string"
            }
          ],
          "internalType": "struct User.UserInfo",
          "name": "",
          "type": "tuple"
        }
      ],
      "stateMutability": "view",
      "type": "function",
      "constant": true
    }
  ],
  "bytecode": "0x608060405234801561001057600080fd5b506111b1806100206000396000f3fe608060405234801561001057600080fd5b506004361061004c5760003560e01c806322ce12e514610051578063689e1c0314610082578063c8707395146100b6578063cdfbb351146100d2575b600080fd5b61006b60048036038101906100669190610b2e565b6100ee565b604051610079929190610ced565b60405180910390f35b61009c60048036038101906100979190610d1d565b6104c9565b6040516100ad959493929190610dbf565b60405180910390f35b6100d060048036038101906100cb9190610e5a565b610735565b005b6100ec60048036038101906100e79190610b2e565b610865565b005b60006100f8610902565b600080856040516101099190610f81565b9081526020016040518091039020600301540361015b576040517f08c379a000000000000000000000000000000000000000000000000000000000815260040161015290610fe4565b60405180910390fd5b8260405160200161016c9190610f81565b604051602081830303815290604052805190602001206000856040516101929190610f81565b90815260200160405180910390206004016040516020016101b391906110f8565b60405160208183030381529060405280519060200120036104575760016000856040516101e09190610f81565b9081526020016040518091039020806040518060a001604052908160008201805461020a90611033565b80601f016020809104026020016040519081016040528092919081815260200182805461023690611033565b80156102835780601f1061025857610100808354040283529160200191610283565b820191906000526020600020905b81548152906001019060200180831161026657829003601f168201915b5050505050815260200160018201805461029c90611033565b80601f01602080910402602001604051908101604052809291908181526020018280546102c890611033565b80156103155780601f106102ea57610100808354040283529160200191610315565b820191906000526020600020905b8154815290600101906020018083116102f857829003601f168201915b5050505050815260200160028201805461032e90611033565b80601f016020809104026020016040519081016040528092919081815260200182805461035a90611033565b80156103a75780601f1061037c576101008083540402835291602001916103a7565b820191906000526020600020905b81548152906001019060200180831161038a57829003601f168201915b50505050508152602001600382015481526020016004820180546103ca90611033565b80601f01602080910402602001604051908101604052809291908181526020018280546103f690611033565b80156104435780601f1061041857610100808354040283529160200191610443565b820191906000526020600020905b81548152906001019060200180831161042657829003601f168201915b5050505050815250509050915091506104c2565b60006040518060a001604052806040518060200160405280600081525081526020016040518060200160405280600081525081526020016040518060200160405280600081525081526020016000815260200160405180602001604052806000815250815250915091505b9250929050565b60008180516020810182018051848252602083016020850120818352809550505050505060009150905080600001805461050290611033565b80601f016020809104026020016040519081016040528092919081815260200182805461052e90611033565b801561057b5780601f106105505761010080835404028352916020019161057b565b820191906000526020600020905b81548152906001019060200180831161055e57829003601f168201915b50505050509080600101805461059090611033565b80601f01602080910402602001604051908101604052809291908181526020018280546105bc90611033565b80156106095780601f106105de57610100808354040283529160200191610609565b820191906000526020600020905b8154815290600101906020018083116105ec57829003601f168201915b50505050509080600201805461061e90611033565b80601f016020809104026020016040519081016040528092919081815260200182805461064a90611033565b80156106975780601f1061066c57610100808354040283529160200191610697565b820191906000526020600020905b81548152906001019060200180831161067a57829003601f168201915b5050505050908060030154908060040180546106b290611033565b80601f01602080910402602001604051908101604052809291908181526020018280546106de90611033565b801561072b5780601f106107005761010080835404028352916020019161072b565b820191906000526020600020905b81548152906001019060200180831161070e57829003601f168201915b5050505050905085565b600080866040516107469190610f81565b90815260200160405180910390206003015414610798576040517f08c379a000000000000000000000000000000000000000000000000000000000815260040161078f9061115b565b60405180910390fd5b6040518060a00160405280868152602001858152602001848152602001838152602001828152506000866040516107cf9190610f81565b908152602001604051809103902060008201518160000190805190602001906107f9929190610931565b506020820151816001019080519060200190610816929190610931565b506040820151816002019080519060200190610833929190610931565b5060608201518160030155608082015181600401908051906020019061085a929190610931565b509050505050505050565b600080836040516108769190610f81565b908152602001604051809103902060030154036108c8576040517f08c379a00000000000000000000000000000000000000000000000000000000081526004016108bf90610fe4565b60405180910390fd5b806000836040516108d99190610f81565b908152602001604051809103902060040190805190602001906108fd929190610931565b505050565b6040518060a0016040528060608152602001606081526020016060815260200160008152602001606081525090565b82805461093d90611033565b90600052602060002090601f01602090048101928261095f57600085556109a6565b82601f1061097857805160ff19168380011785556109a6565b828001600101855582156109a6579182015b828111156109a557825182559160200191906001019061098a565b5b5090506109b391906109b7565b5090565b5b808211156109d05760008160009055506001016109b8565b5090565b6000604051905090565b600080fd5b600080fd5b600080fd5b600080fd5b6000601f19601f8301169050919050565b7f4e487b7100000000000000000000000000000000000000000000000000000000600052604160045260246000fd5b610a3b826109f2565b810181811067ffffffffffffffff82111715610a5a57610a59610a03565b5b80604052505050565b6000610a6d6109d4565b9050610a798282610a32565b919050565b600067ffffffffffffffff821115610a9957610a98610a03565b5b610aa2826109f2565b9050602081019050919050565b82818337600083830152505050565b6000610ad1610acc84610a7e565b610a63565b905082815260208101848484011115610aed57610aec6109ed565b5b610af8848285610aaf565b509392505050565b600082601f830112610b1557610b146109e8565b5b8135610b25848260208601610abe565b91505092915050565b60008060408385031215610b4557610b446109de565b5b600083013567ffffffffffffffff811115610b6357610b626109e3565b5b610b6f85828601610b00565b925050602083013567ffffffffffffffff811115610b9057610b8f6109e3565b5b610b9c85828601610b00565b9150509250929050565b60008115159050919050565b610bbb81610ba6565b82525050565b600081519050919050565b600082825260208201905092915050565b60005b83811015610bfb578082015181840152602081019050610be0565b83811115610c0a576000848401525b50505050565b6000610c1b82610bc1565b610c258185610bcc565b9350610c35818560208601610bdd565b610c3e816109f2565b840191505092915050565b6000819050919050565b610c5c81610c49565b82525050565b600060a0830160008301518482036000860152610c7f8282610c10565b91505060208301518482036020860152610c998282610c10565b91505060408301518482036040860152610cb38282610c10565b9150506060830151610cc86060860182610c53565b5060808301518482036080860152610ce08282610c10565b9150508091505092915050565b6000604082019050610d026000830185610bb2565b8181036020830152610d148184610c62565b90509392505050565b600060208284031215610d3357610d326109de565b5b600082013567ffffffffffffffff811115610d5157610d506109e3565b5b610d5d84828501610b00565b91505092915050565b600082825260208201905092915050565b6000610d8282610bc1565b610d8c8185610d66565b9350610d9c818560208601610bdd565b610da5816109f2565b840191505092915050565b610db981610c49565b82525050565b600060a0820190508181036000830152610dd98188610d77565b90508181036020830152610ded8187610d77565b90508181036040830152610e018186610d77565b9050610e106060830185610db0565b8181036080830152610e228184610d77565b90509695505050505050565b610e3781610c49565b8114610e4257600080fd5b50565b600081359050610e5481610e2e565b92915050565b600080600080600060a08688031215610e7657610e756109de565b5b600086013567ffffffffffffffff811115610e9457610e936109e3565b5b610ea088828901610b00565b955050602086013567ffffffffffffffff811115610ec157610ec06109e3565b5b610ecd88828901610b00565b945050604086013567ffffffffffffffff811115610eee57610eed6109e3565b5b610efa88828901610b00565b9350506060610f0b88828901610e45565b925050608086013567ffffffffffffffff811115610f2c57610f2b6109e3565b5b610f3888828901610b00565b9150509295509295909350565b600081905092915050565b6000610f5b82610bc1565b610f658185610f45565b9350610f75818560208601610bdd565b80840191505092915050565b6000610f8d8284610f50565b915081905092915050565b7f5573657220646f6573206e6f7420657869737400000000000000000000000000600082015250565b6000610fce601383610d66565b9150610fd982610f98565b602082019050919050565b60006020820190508181036000830152610ffd81610fc1565b9050919050565b7f4e487b7100000000000000000000000000000000000000000000000000000000600052602260045260246000fd5b6000600282049050600182168061104b57607f821691505b60208210810361105e5761105d611004565b5b50919050565b60008190508160005260206000209050919050565b6000815461108681611033565b6110908186610f45565b945060018216600081146110ab57600181146110bc576110ef565b60ff198316865281860193506110ef565b6110c585611064565b60005b838110156110e7578154818901526001820191506020810190506110c8565b838801955050505b50505092915050565b60006111048284611079565b915081905092915050565b7f5573657220616c72656164792065786973747300000000000000000000000000600082015250565b6000611145601383610d66565b91506111508261110f565b602082019050919050565b6000602082019050818103600083015261117481611138565b905091905056fea264697066735822122071d77facf7a05664289c37fa798d988d5ec02d06abf70ba949b8fe25b0276a4564736f6c634300080d0033",
  "immutableReferences": {},
  "source": "// SPDX-License-Identifier: MIT\npragma solidity >=0.5.0 <0.9.0;\n\ncontract User {\n    struct UserInfo {\n        string walletAddress;\n        string name;\n        string email;\n        uint userType; // 1 = farmer, 2 = buyer\n        string password; \n    }\n\n    mapping(string => UserInfo) public users;\n\n    constructor() {}\n\n    function addUser(\n        string memory walletAddress,\n        string memory name,\n        string memory email,\n        uint userType,\n        string memory password\n    ) public {\n        require(users[walletAddress].userType == 0, \"User already exists\");\n\n        users[walletAddress] = UserInfo({\n            walletAddress: walletAddress,\n            name: name,\n            email: email,\n            userType: userType,\n            password: password\n        });\n    }\n\n    function updatePassword(string memory walletAddress, string memory newPassword) public {\n        require(users[walletAddress].userType != 0, \"User does not exist\");\n\n        users[walletAddress].password = newPassword;\n    }\n\n    function loginUser(string memory walletAddress, string memory password) public view returns (bool, UserInfo memory) {\n        require(users[walletAddress].userType != 0, \"User does not exist\");\n\n        if (keccak256(abi.encodePacked(users[walletAddress].password)) == keccak256(abi.encodePacked(password))) {\n            return (true, users[walletAddress]);\n        } else {\n            return (false, UserInfo({walletAddress: \"\", name: \"\", email: \"\", userType: 0, password: \"\"}));\n        }\n    }\n}\n",
  "sourcePath": "/Users/prithvirajawatade/Documents/GitHub/agricultural-agreements/web3/contracts/User.sol",
  "compiler": {
    "name": "solc",
    "version": "0.8.13+commit.abaa5c0e.Emscripten.clang"
  },
  "schemaVersion": "3.4.16",
  "updatedAt": "2023-11-27T04:15:59.118Z",
  "networkType": "ethereum",
  "devdoc": {
    "kind": "dev",
    "methods": {},
    "version": 1
  },
  "userdoc": {
    "kind": "user",
    "methods": {},
    "version": 1
  }
}