{
  "contractName": "User",
  "abi": [
    {
      "inputs": [],
      "stateMutability": "nonpayable",
      "type": "constructor"
    },
    {
      "inputs": [
        {
          "internalType": "string",
          "name": "",
          "type": "string"
        }
      ],
      "name": "users",
      "outputs": [
        {
          "internalType": "string",
          "name": "walletAddress",
          "type": "string"
        },
        {
          "internalType": "string",
          "name": "name",
          "type": "string"
        },
        {
          "internalType": "string",
          "name": "email",
          "type": "string"
        },
        {
          "internalType": "uint256",
          "name": "userType",
          "type": "uint256"
        }
      ],
      "stateMutability": "view",
      "type": "function",
      "constant": true
    },
    {
      "inputs": [
        {
          "internalType": "string",
          "name": "walletAddress",
          "type": "string"
        },
        {
          "internalType": "string",
          "name": "name",
          "type": "string"
        },
        {
          "internalType": "string",
          "name": "email",
          "type": "string"
        },
        {
          "internalType": "uint256",
          "name": "userType",
          "type": "uint256"
        }
      ],
      "name": "addUser",
      "outputs": [],
      "stateMutability": "nonpayable",
      "type": "function"
    },
    {
      "inputs": [
        {
          "internalType": "string",
          "name": "walletAddress",
          "type": "string"
        },
        {
          "internalType": "string",
          "name": "name",
          "type": "string"
        },
        {
          "internalType": "string",
          "name": "email",
          "type": "string"
        },
        {
          "internalType": "uint256",
          "name": "userType",
          "type": "uint256"
        }
      ],
      "name": "updateUser",
      "outputs": [],
      "stateMutability": "nonpayable",
      "type": "function"
    },
    {
      "inputs": [
        {
          "internalType": "string",
          "name": "walletAddress",
          "type": "string"
        }
      ],
      "name": "deleteUser",
      "outputs": [],
      "stateMutability": "nonpayable",
      "type": "function"
    },
    {
      "inputs": [
        {
          "internalType": "string",
          "name": "walletAddress",
          "type": "string"
        }
      ],
      "name": "getUserInfo",
      "outputs": [
        {
          "components": [
            {
              "internalType": "string",
              "name": "walletAddress",
              "type": "string"
            },
            {
              "internalType": "string",
              "name": "name",
              "type": "string"
            },
            {
              "internalType": "string",
              "name": "email",
              "type": "string"
            },
            {
              "internalType": "uint256",
              "name": "userType",
              "type": "uint256"
            }
          ],
          "internalType": "struct User.UserInfo",
          "name": "",
          "type": "tuple"
        }
      ],
      "stateMutability": "view",
      "type": "function",
      "constant": true
    },
    {
      "inputs": [
        {
          "internalType": "string",
          "name": "walletAddress",
          "type": "string"
        }
      ],
      "name": "isFarmer",
      "outputs": [
        {
          "internalType": "bool",
          "name": "",
          "type": "bool"
        }
      ],
      "stateMutability": "view",
      "type": "function",
      "constant": true
    },
    {
      "inputs": [
        {
          "internalType": "string",
          "name": "walletAddress",
          "type": "string"
        }
      ],
      "name": "isBuyer",
      "outputs": [
        {
          "internalType": "bool",
          "name": "",
          "type": "bool"
        }
      ],
      "stateMutability": "view",
      "type": "function",
      "constant": true
    }
  ],
  "bytecode": "0x608060405234801561001057600080fd5b50611004806100206000396000f3fe608060405234801561001057600080fd5b506004361061007d5760003560e01c80637de60fb91161005b5780637de60fb91461011557806391c8e73d14610131578063c1976b8314610161578063d36951611461017d5761007d565b8063689e1c03146100825780636928d251146100b55780637c9b7fdd146100e5575b600080fd5b61009c60048036038101906100979190610af6565b610199565b6040516100ac9493929190610be0565b60405180910390f35b6100cf60048036038101906100ca9190610af6565b610377565b6040516100dc9190610c55565b60405180910390f35b6100ff60048036038101906100fa9190610af6565b6103a5565b60405161010c9190610d3a565b60405180910390f35b61012f600480360381019061012a9190610d88565b61059d565b005b61014b60048036038101906101469190610af6565b6106a9565b6040516101589190610c55565b60405180910390f35b61017b60048036038101906101769190610d88565b6106d7565b005b61019760048036038101906101929190610af6565b6107d2565b005b6000818051602081018201805184825260208301602085012081835280955050505050506000915090508060000180546101d290610e72565b80601f01602080910402602001604051908101604052809291908181526020018280546101fe90610e72565b801561024b5780601f106102205761010080835404028352916020019161024b565b820191906000526020600020905b81548152906001019060200180831161022e57829003601f168201915b50505050509080600101805461026090610e72565b80601f016020809104026020016040519081016040528092919081815260200182805461028c90610e72565b80156102d95780601f106102ae576101008083540402835291602001916102d9565b820191906000526020600020905b8154815290600101906020018083116102bc57829003601f168201915b5050505050908060020180546102ee90610e72565b80601f016020809104026020016040519081016040528092919081815260200182805461031a90610e72565b80156103675780601f1061033c57610100808354040283529160200191610367565b820191906000526020600020905b81548152906001019060200180831161034a57829003601f168201915b5050505050908060030154905084565b6000600160008360405161038b9190610edf565b908152602001604051809103902060030154149050919050565b6103ad610891565b6000826040516103bd9190610edf565b90815260200160405180910390206040518060800160405290816000820180546103e690610e72565b80601f016020809104026020016040519081016040528092919081815260200182805461041290610e72565b801561045f5780601f106104345761010080835404028352916020019161045f565b820191906000526020600020905b81548152906001019060200180831161044257829003601f168201915b5050505050815260200160018201805461047890610e72565b80601f01602080910402602001604051908101604052809291908181526020018280546104a490610e72565b80156104f15780601f106104c6576101008083540402835291602001916104f1565b820191906000526020600020905b8154815290600101906020018083116104d457829003601f168201915b5050505050815260200160028201805461050a90610e72565b80601f016020809104026020016040519081016040528092919081815260200182805461053690610e72565b80156105835780601f1061055857610100808354040283529160200191610583565b820191906000526020600020905b81548152906001019060200180831161056657829003601f168201915b505050505081526020016003820154815250509050919050565b600080856040516105ae9190610edf565b90815260200160405180910390206003015414610600576040517f08c379a00000000000000000000000000000000000000000000000000000000081526004016105f790610f42565b60405180910390fd5b6040518060800160405280858152602001848152602001838152602001828152506000856040516106319190610edf565b9081526020016040518091039020600082015181600001908051906020019061065b9291906108b9565b5060208201518160010190805190602001906106789291906108b9565b5060408201518160020190805190602001906106959291906108b9565b506060820151816003015590505050505050565b600060026000836040516106bd9190610edf565b908152602001604051809103902060030154149050919050565b600080856040516106e89190610edf565b9081526020016040518091039020600301540361073a576040517f08c379a000000000000000000000000000000000000000000000000000000000815260040161073190610fae565b60405180910390fd5b8260008560405161074b9190610edf565b9081526020016040518091039020600101908051906020019061076f9291906108b9565b50816000856040516107819190610edf565b908152602001604051809103902060020190805190602001906107a59291906108b9565b50806000856040516107b79190610edf565b90815260200160405180910390206003018190555050505050565b600080826040516107e39190610edf565b90815260200160405180910390206003015403610835576040517f08c379a000000000000000000000000000000000000000000000000000000000815260040161082c90610fae565b60405180910390fd5b6000816040516108459190610edf565b908152602001604051809103902060008082016000610864919061093f565b600182016000610874919061093f565b600282016000610884919061093f565b6003820160009055505050565b6040518060800160405280606081526020016060815260200160608152602001600081525090565b8280546108c590610e72565b90600052602060002090601f0160209004810192826108e7576000855561092e565b82601f1061090057805160ff191683800117855561092e565b8280016001018555821561092e579182015b8281111561092d578251825591602001919060010190610912565b5b50905061093b919061097f565b5090565b50805461094b90610e72565b6000825580601f1061095d575061097c565b601f01602090049060005260206000209081019061097b919061097f565b5b50565b5b80821115610998576000816000905550600101610980565b5090565b6000604051905090565b600080fd5b600080fd5b600080fd5b600080fd5b6000601f19601f8301169050919050565b7f4e487b7100000000000000000000000000000000000000000000000000000000600052604160045260246000fd5b610a03826109ba565b810181811067ffffffffffffffff82111715610a2257610a216109cb565b5b80604052505050565b6000610a3561099c565b9050610a4182826109fa565b919050565b600067ffffffffffffffff821115610a6157610a606109cb565b5b610a6a826109ba565b9050602081019050919050565b82818337600083830152505050565b6000610a99610a9484610a46565b610a2b565b905082815260208101848484011115610ab557610ab46109b5565b5b610ac0848285610a77565b509392505050565b600082601f830112610add57610adc6109b0565b5b8135610aed848260208601610a86565b91505092915050565b600060208284031215610b0c57610b0b6109a6565b5b600082013567ffffffffffffffff811115610b2a57610b296109ab565b5b610b3684828501610ac8565b91505092915050565b600081519050919050565b600082825260208201905092915050565b60005b83811015610b79578082015181840152602081019050610b5e565b83811115610b88576000848401525b50505050565b6000610b9982610b3f565b610ba38185610b4a565b9350610bb3818560208601610b5b565b610bbc816109ba565b840191505092915050565b6000819050919050565b610bda81610bc7565b82525050565b60006080820190508181036000830152610bfa8187610b8e565b90508181036020830152610c0e8186610b8e565b90508181036040830152610c228185610b8e565b9050610c316060830184610bd1565b95945050505050565b60008115159050919050565b610c4f81610c3a565b82525050565b6000602082019050610c6a6000830184610c46565b92915050565b600082825260208201905092915050565b6000610c8c82610b3f565b610c968185610c70565b9350610ca6818560208601610b5b565b610caf816109ba565b840191505092915050565b610cc381610bc7565b82525050565b60006080830160008301518482036000860152610ce68282610c81565b91505060208301518482036020860152610d008282610c81565b91505060408301518482036040860152610d1a8282610c81565b9150506060830151610d2f6060860182610cba565b508091505092915050565b60006020820190508181036000830152610d548184610cc9565b905092915050565b610d6581610bc7565b8114610d7057600080fd5b50565b600081359050610d8281610d5c565b92915050565b60008060008060808587031215610da257610da16109a6565b5b600085013567ffffffffffffffff811115610dc057610dbf6109ab565b5b610dcc87828801610ac8565b945050602085013567ffffffffffffffff811115610ded57610dec6109ab565b5b610df987828801610ac8565b935050604085013567ffffffffffffffff811115610e1a57610e196109ab565b5b610e2687828801610ac8565b9250506060610e3787828801610d73565b91505092959194509250565b7f4e487b7100000000000000000000000000000000000000000000000000000000600052602260045260246000fd5b60006002820490506001821680610e8a57607f821691505b602082108103610e9d57610e9c610e43565b5b50919050565b600081905092915050565b6000610eb982610b3f565b610ec38185610ea3565b9350610ed3818560208601610b5b565b80840191505092915050565b6000610eeb8284610eae565b915081905092915050565b7f5573657220616c72656164792065786973747300000000000000000000000000600082015250565b6000610f2c601383610b4a565b9150610f3782610ef6565b602082019050919050565b60006020820190508181036000830152610f5b81610f1f565b9050919050565b7f5573657220646f6573206e6f7420657869737400000000000000000000000000600082015250565b6000610f98601383610b4a565b9150610fa382610f62565b602082019050919050565b60006020820190508181036000830152610fc781610f8b565b905091905056fea26469706673582212203f0c67e31b648595d31c87bf9cd4b7778e810c431d9f75e14ca2032c02f870ed64736f6c634300080d0033",
  "immutableReferences": {},
  "source": "// SPDX-License-Identifier: MIT\npragma solidity >=0.5.0 <0.9.0;\n\ncontract User {\n    struct UserInfo {\n        string walletAddress;\n        string name;\n        string email;\n        uint userType; // 1 = farmer, 2 = buyer,\n    }\n\n    mapping(string => UserInfo) public users;\n\n    constructor() {}\n\n    function addUser(\n        string memory walletAddress,\n        string memory name,\n        string memory email,\n        uint userType\n    ) public {\n        require(users[walletAddress].userType == 0, \"User already exists\");\n        users[walletAddress] = UserInfo({\n            walletAddress: walletAddress,\n            name: name,\n            email: email,\n            userType: userType\n        });\n    }\n\n    function updateUser(\n        string memory walletAddress,\n        string memory name,\n        string memory email,\n        uint userType\n    ) public {\n        require(users[walletAddress].userType != 0, \"User does not exist\");\n\n        users[walletAddress].name = name;\n        users[walletAddress].email = email;\n        users[walletAddress].userType = userType;\n    }\n\n    function deleteUser(string memory walletAddress) public {\n        require(users[walletAddress].userType != 0, \"User does not exist\");\n\n        delete users[walletAddress];\n    }\n\n    function getUserInfo(\n        string memory walletAddress\n    ) public view returns (UserInfo memory) {\n        return users[walletAddress];\n    }\n\n    function isFarmer(string memory walletAddress) public view returns (bool) {\n        return users[walletAddress].userType == 1;\n    }\n\n    function isBuyer(string memory walletAddress) public view returns (bool) {\n        return users[walletAddress].userType == 2;\n    }\n}\n",
  "sourcePath": "/Users/prithvirajawatade/Documents/GitHub/agricultural-agreements/web3/contracts/User.sol",
  "compiler": {
    "name": "solc",
    "version": "0.8.13+commit.abaa5c0e.Emscripten.clang"
  },
  "schemaVersion": "3.4.16",
  "updatedAt": "2023-11-24T20:56:17.756Z",
  "networkType": "ethereum",
  "devdoc": {
    "kind": "dev",
    "methods": {},
    "version": 1
  },
  "userdoc": {
    "kind": "user",
    "methods": {},
    "version": 1
  }
}